:020000040800F2
:10000000E0040020D90000080D180008651700085A
:1000100000000000000000000000000000000000E0
:10002000000000000000000000000000111800089F
:1000300000000000000000000F180008131800085E
:10004000EB000008EB000008EB000008EB000008E4
:10005000EB000008EB000008EB000008EB000008D4
:1000600000000000EB000008EB000008EB000008B7
:10007000EB000008EB00000800000000AD180008CD
:100080000000000000000000000000000000000070
:10009000EB00000800000000EB000008EB00000887
:1000A00000000000EB00000800000000000000005D
:1000B000EB000008EB00000800000000000000005A
:1000C0000448854600F08EFB0048004731210008B7
:1000D000C046C046E004002004488047044800476A
:1000E000FEE7FEE7FEE7FEE7FEE7FEE7A9180008E9
:1000F000C100000830B50B46014600202022012433
:1001000009E00D46D5409D4205D31D469540491B4B
:100110002546954040191546521E002DF1DC30BD94
:10012000F0B51FB40646002082B005464024019178
:1001300000901BE0019922460F46304600F04AF934
:10014000049A059B801A994110D3104619462246FD
:1001500000F030F9361A8F41019722460120002124
:10016000009F00F027F938184D4100902046641E8A
:100170000028DFDC019B00982946324607B0F0BD1D
:10018000D2B201E00270401C491EFBD2704700222F
:10019000F6E710B513460A4604461946FFF7F0FF86
:1001A000204610BDF8B502464A40D40F42004B002D
:1001B00052085B089A4202D20246084611464A009B
:1001C00023D0C30D4A00DDB2120EAD1A202D35DA50
:1001D00049020126490AF6058A19002C00D052422C
:1001E00020214F1B1146B9402A411018C20D9A42D6
:1001F00021D0002C17D0012D08DCDA05801AD20F8F
:100200008019D207DBB200F0FEF8F8BDDA05801ADB
:10021000012340001B06C01880185A428018CA0FDC
:100220001043490007E04908C2071143DA05801A64
:1002300080194008801800F0DEF8F8BD6100012246
:10024000511A001BF7E70122D2075140AAE7012209
:10025000D2075040A6E70000F0B51FB488B00B9954
:100260000998002448400999C00F4900490809919C
:10027000C0070B990090490049080B91099908980B
:10028000A64608431CD00B990A98084318D0099831
:1002900001244000420D4800410D09982405000347
:1002A000000B204309900B980003000B20430B9098
:1002B00050181C494018002201901446104605E0D1
:1002C000002001460DB0F0BD032801DA034600E02E
:1002D00003239C46C11A0AAE0AE05F0008ADED5B3D
:1002E0004F00F75B7D430027AA187C41491C5B1E29
:1002F0006145F2DD410004AB5A522104120C0A435D
:10030000240C401C0828DFDB0198029000997046FD
:1003100001910090059B049A0799069800F0B9F89E
:10032000D0E700000DFCFFFF10B500229623114618
:1003300000F069F810BD00000EB5C217C10F5040A3
:10034000CA0740180021054B0293019200910A460A
:100350000B4600F09EF803B000BD0000330400001F
:100360000EB505490291002100910A460B46019104
:1003700000F08FF803B000BD33040000CB0FDB07A3
:10038000490010B5490802460A4307D00A0D072460
:100390000903E401090B121B002A01DC002010BD37
:1003A000C900440F0C43C100E018D205801800F0CA
:1003B00022F810BD10B5202A04DB0146203A9140F6
:1003C000002010BD914020239C1A0346E3401943AE
:1003D000904010BD10B5202A04DB0846203AD040DA
:1003E000002110BD0B46D340D0402024A21A9140DA
:1003F0000843194610BD002904DA401C490001D108
:1004000040084000704770B40024050C05D110244A
:10041000000402D1002921D01124050E01D10002CF
:100420000834050F01D10001241D850F01D1800082
:10043000A41C002801DB4000641C002908D02025F2
:100440002E1B0D46F540A14000D001212943084351
:1004500001061B1B000ADB1D02D5002070BC704783
:10046000DB05181880180029F8DA401C4900F5D17E
:1004700070BC40084000704710B5002B08DA00241B
:10048000401C614192185B411A4301D14008400071
:1004900010BDF0B51FB482B005460C0003D008466D
:1004A00001F05EFC02E001F05BFC203002460090AF
:1004B00021462846FFF77EFF049B059A04460F4617
:1004C00018431143084314D0184610431BD000981A
:1004D00040210A1A18460599FFF77CFF05460E468B
:1004E000009A05990498FFF765FF084305D001209D
:1004F00004E02046394607B0F0BD0020C11705438F
:100500000E432C43374300990E986305401A790532
:10051000E40A00220C43FD0A0A3002D500200146FD
:10052000E9E70105101969410C9C0D9D001969410D
:10053000FFF7A2FFDFE70000F0B507460846584086
:1005400087B0C00F049048000E4659004008490883
:10055000BC1A884105D2384631461E4617460B461E
:1005600002465800400810434DD0300D039040051E
:100570005900400D490D0590401A0290402873DA49
:1005800018030121000B090508430190049800920B
:10059000002806D01146019A49420020904100915E
:1005A0000190029840210A1A01990098FFF702FF72
:1005B00005460C466B4607CB00F026F9C019714181
:1005C000039A0E0D0023D71756401A467A40164359
:1005D00044D0049A002A2DD0029A012A039A15DCED
:1005E0001205C01A914101263605001C7141D20F37
:1005F000059ED2070093019202962A462346FFF7F2
:1006000048FF07B0F0BD38463146FAE71605234AE1
:100610000F46B218C01AB74101210905001C4F410D
:1006200000187F41114618187941E20F10436D19E7
:10063000644113E0E2076D0815436408C2071443E0
:10064000039A01261205C01A91413605001C71411A
:10065000CE07400830434908C01851412A46234676
:10066000FFF70AFFCDE7FFE7049801224000C1171A
:10067000121A00238B4104983146C417381AA1413D
:10068000EEE730B40124E407634030BC54E730B4F3
:100690000124E407614030BC4EE700000000E0FFA9
:1006A000F0B50C465C4085B0E40FE40703944C00C1
:1006B00000266408590094464908024602962243DF
:1006C00021D062460A431ED06200570D4A000E0335
:1006D0002303550D012402462C492405781B1B0BCE
:1006E000360B401823432643614600901C46501A9F
:1006F000B44103D30098401C009002E09218009887
:100700005B41002803DA0020014605B0F0BD00205F
:10071000012109050746864611E064461D46141B63
:10072000B54106D36546521BB341744607430C439B
:10073000A646CD0740084908284392185B41054664
:100740000D43EAD11046184313D060461946504075
:100750007140084306D06046101AB34106D2012208
:10076000002306E000220123DB0702E00122D2433E
:100770005310009874460105381C6141029C039D8A
:1007800000196941FFF778FEBFE70000FD03000094
:1007900070B54B005B0803430BD04B005C0D00268B
:1007A00033466542B341D417AD1AA34102DB0020A2
:1007B000014670BD12053018514170BD10B50029B9
:1007C00004DB0124E40740428C412146002B04DB7A
:1007D0001C460123DB075242A341994200D19042BB
:1007E00010BD0000064C0125064E05E0E36807CC6D
:1007F0002B430C3C98471034B442F7D3FFF764FC0A
:10080000D82C0008F82C000810B5202A06DBCB17DE
:100810000846203A1041C1170B4306E00B4613412E
:10082000D0402024A21A91400843194610BDFEB5BD
:1008300000231A461B1A8A4103DB0020014603B03D
:10084000F0BD4A000D0301212D0B0905520D0D438A
:10085000D10702D100186D41521E5110FF31FF31F6
:100860000131002704463E46384600970191024672
:10087000012100200905FFF7ADFDC3197141F818EA
:10088000324684468E464A4161462846611A904166
:1008900004D36046241A954176461F4624190098D1
:1008A0006D41401C00903428E1DDF919304670415B
:1008B000091BA84103D20022D243134601E00022C3
:1008C000134601980105381C7141FFF7D5FDB6E7C5
:1008D00070B5044600F0E4F80546601C02D00448F8
:1008E0000078241800F0DCF8401BA042FAD370BD59
:1008F00008000020F8B5002303240125B8E03246A3
:100900002E469E40B446324079D00E79B607B60FD7
:10091000012E01D0022E17D186682746B6465E000A
:10092000B74000967646BE43B646CF68009EB740B5
:1009300076463743876046686746BE430F79FF06B1
:10094000FF0F9F40374347600E79F643B6070ED03E
:10095000C6682746B4465E00B646B7406646BE4304
:10096000B4468F687646B74066463743C7600E790F
:10097000B607B60F022E14D1DE08B6003618009660
:10098000366A5F07B446FE0E0F27B646B740664686
:10099000BE43B4460F697646B74066463743009E6D
:1009A000376206682746B4465E00B646B7406646DC
:1009B000BE430F79B446BF07BF0F7646B7406646C1
:1009C000374307604E68B603B60F50D02B4F7E6B8F
:1009D0002E437E639F082A4EBF00BE190096B6685C
:1009E0000F27B4469E07360FB646B7406646BE434D
:1009F00005273F07B446B84202D1002710E036E091
:100A0000204FB84201D101270AE01F4FB84201D15F
:100A1000022705E01D4FB84201D1052700E0062757
:100A20007646B74066463743009EB760184E366834
:100A30004F689643FF0300D51643154F3E607E680E
:100A40004F689643BF0300D51643114F7E60BE68C2
:100A50004F689643FF0200D516430D4FBE60FE68F7
:100A60004F689643BF0200D51643094AD6605B1C07
:100A70000A681646DA4000D041E7F8BD001002408F
:100A8000000001400004005000080050001C00500D
:100A9000000401400069084000D0012070470000B8
:100AA0000148806870470000080000200248816803
:100AB00002788918816070470800002010B5084846
:100AC00000240168402211430160204600F00AF82A
:100AD000002801D0012401E000F026F8204610BDD6
:100AE0000020024070B504460D4D7D202978C000DD
:100AF000FFF700FB01460B480068FFF7FBFA00F028
:100B00001BFC002809D1042C07D200222146401EDC
:100B100000F022F800206C6070BD012070BD000064
:100B200008000020140000200448416B01221143FA
:100B30004163816B020411438163704700100240DE
:100B4000002805DBC106C90E012088400149086064
:100B50007047000000E100E010B501F053F910BD4E
:100B6000F8B50446007800274E4D800671D54D4EED
:100B7000403EB06BC00004D4B06BA9050843B0631D
:100B8000012749480168C90511D40168821511433C
:100B90000160FFF785FF009005E0FFF781FF0099F6
:100BA000401A642837D840480068C005F5D5326837
:100BB0000321090560680A400140914208D0810381
:100BC000890F032904D13168890301D50120F8BDBB
:100BD0002A69032109040A4022D0084090421FD00C
:100BE000207880061CD528692A6988430121C90418
:100BF0000A432A612A698A432A612861C0050FD500
:100C0000FFF74EFF009008E0FFF74AFF0099411AF6
:100C10002648814201D90320F8BD28698005F3D513
:100C200061688803800F032805D13268000582437C
:100C300001400A43326028690322616812041140AE
:100C400008432861002F04D0B16B012000078143C5
:100C5000B1632078800705D5E8680C218843A16836
:100C60000843E8602078400706D5E8680321890238
:100C70008843E1680843E8602078000706D5E86803
:100C800003210903884321690843E86020780006AE
:100C900006D5E86803218904884361690843E86050
:100CA0000020F8BD40100240007000408813000092
:100CB000F8B50E46050038D05E480068C007C00F82
:100CC000B04214D25B4C20684008400030432060A2
:100CD000FFF7E6FE074605E0FFF7E2FEC11B5648B8
:100CE00081427AD82068C007C00FB042F4D128787A
:100CF000524C800705D5E068F0218843A968084375
:100D0000E0602878C00752D06868022806D003281F
:100D100007D0216801280AD0890504E021688903E9
:100D200001E021688901002903DB0120F8BD4907A2
:100D3000F9E7E168890889000143E160FFF7B0FE47
:100D40000746686802280AD0032814D001281ED05C
:100D500029E0FFF7A5FEC11B374881423DD8E06876
:100D60000007800F0228F4D121E0FFF799FEC11B94
:100D70003148814231D8E0680007800F0328F4D160
:100D800015E0FFF78DFEC11B2B48814225D8E06896
:100D90000007800F0128F4D109E0FFF781FEC11B95
:100DA0002548814219D8E0680007800FF5D1214815
:100DB0000168C907C90FB14217D90168490849003C
:100DC00031430160FFF76CFE074608E005E0FFF7DE
:100DD00067FEC11B1848814201D90320F8BD1548A0
:100DE0000068C007C00FB042F1D12878400706D58F
:100DF000E068072109028843E9680843E060287831
:100E0000000707D5E0680721C90288432969C9009E
:100E10000843E06000F03AF8E168094A0906090F62
:100E2000515CC8400749086007480068FFF75AFE50
:100E3000F8BD0000002002408813000000100240AE
:100E4000202C0008140000200C0000200448054954
:100E50000068C968044A4905490F515CC840704799
:100E60001400002000100240392C000804480549F5
:100E70000068C968044A8904490F515CC84070473A
:100E80001400002000100240392C000870B51A4AE6
:100E9000D3681A490C2018408D0004280CD04E004D
:100EA000082810D00C2810D050680004410F0120F1
:100EB000C003491C884070BD1068C00601D50846B3
:100EC00070BD284670BD304670BD98020C4C000FB6
:100ED000205C1B029C0FD368641CDB0301D53146E8
:100EE00003E01268D20600D4294600F050FF2246E3
:100EF0000023FFF715F970BD0010024000093D0006
:100F0000302C0008FEB505007ED0F74CE7680C20B9
:100F1000E66807400120000406402878C00747D053
:100F2000082F05D00C2F0AD101200004864206D1DB
:100F3000206880033CD568680028E5D038E00120AF
:100F400069680004814203D121680143216011E0F6
:100F5000052301221B0492049942216802D1114306
:100F60002160F1E781432160216801400091206800
:100F700090432060686800280DD0FFF791FD009035
:100F800005E0FFF78DFD0099401A64287ED820689F
:100F90008003F6D50CE0FFF783FD009005E0FFF736
:100FA0007FFD0099401A6428F0D820688003F6D4A9
:100FB000287880075DD5E868810604D5226820215D
:100FC0000A43226088430923042F0DD00C2F01D13E
:100FD000002E09D000283CD02168994301432160AC
:100FE000FFF75EFD064628E02168490701D5002885
:100FF0008AD061681F22120291432A6912021143AA
:1010000061602168994300E091E101432160FFF7AD
:101010003DFFE16809060A0FB449895CC840B4493C
:101020000860B4480068FFF75DFD002874D120E037
:10103000FFF736FD801B0228A8D820684007F7D5A7
:1010400060681F210902884329690902084360601A
:101050000FE02068400840002060FFF721FD0646B1
:1010600004E0FFF71DFD801B02288FD82068400791
:10107000F7D42878C00661D5002F0DD0A8690028C4
:101080004BD02068FF210131084300E0C6E020601A
:10109000FFF706FD06462DE02068800502D5A86909
:1010A0000028A5D06068072149038843296A0843BE
:1010B00060606068297F0002000A090608436060DA
:1010C000286A410B0120C003491C8840E1680906D9
:1010D0000A0F8649895CC8408549086085480068D0
:1010E000FFF700FD002817D128E0FFF7D9FC801B8F
:1010F0000228A1D820688005F7D560680721490338
:101100008843296A084360606068297F0002000AFA
:1011100009060843606011E0E1E02168FF2001302A
:1011200081432160FFF7BCFC064604E0FFF7B8FCF2
:10113000801B022872D820688005F7D428786E4E6C
:10114000000724D568690028306910D001210843C0
:101150003061FFF7A5FC009005E0FFF7A1FC0099C6
:10116000401A02285AD830698007F6D50FE04008A7
:1011700040003061FFF794FC009005E0FFF790FC21
:101180000099401A022849D830698007F6D4287897
:10119000400765D500200290A06BC00006D4A06B6C
:1011A000012109070843A063012002905348016808
:1011B000C90511D40168821511430160FFF770FC65
:1011C000009005E0FFF76CFC0099401A642825D8D0
:1011D0004A480068C005F5D5FF20AA680130824260
:1011E00003D131690143316111E001218902002AF3
:1011F00007D005231B029A4203D132690A433261A8
:10120000EFE7326982433261306988433061A86810
:1012100000280FD0FFF744FC009007E05EE0FFF7E6
:101220003FFC0099411A3648814257D83069800501
:10123000F5D50DE0FFF734FC009006E0FFF730FC39
:101240000099411A2E48814248D830698005F5D46A
:101250000298002804D0A06B012109078843A063ED
:10126000686A002865D00C2F4CD00126360602286B
:10127000206805D0B0432060FFF712FC05462FE040
:10128000B0432060FFF70CFC074604E0FFF708FCC2
:10129000C01B022822D820688001F7D4E96AA86A16
:1012A000E2680843296BFD231B049A43114308435A
:1012B000E060206830432060FFF7F2FB054604E061
:1012C000FFF7EEFB401B022808D820688001F7D505
:1012D0002FE0FFF7E5FB401B022801D90320FEBDEC
:1012E00020688001F5D424E000100240202C000882
:1012F000140000200C00002040100240007000404C
:10130000881300000128EAD0E06801210904AA6AD4
:10131000014091420BD10F218904EA6A01409142B8
:1013200005D1032189050840296B884201D001209D
:10133000FEBD0020FEBD0000094910B5401E8842D8
:1013400001D9012010BD074C60610321081F00F086
:1013500059FD0020A06107202061002010BD000081
:10136000FFFFFF0000E000E0F0B502462032137EF0
:10137000012B1ED00125157602235376066874686A
:10138000B3687027BC430F68274377600068AC07D9
:10139000A04205D0084CA04202D0084CA04204D183
:1013A00080244968A3431943816055760020107654
:1013B000F0BD0220F0BD0000000801400014014013
:1013C00070B5050005D02C462034607E002802D080
:1013D00006E0012070BD00202076284600F010F8BD
:1013E00002206076291D286800F068FA0120A077A5
:1013F000A076E076207760776076002070BD0000F0
:1014000010B500680121890788420CD10648816B1C
:10141000012211438163002211460F20FFF79CFB3C
:101420000F20FFF78DFB10BD001002400146203158
:101430004A7E012A01D00120704702224A760068C4
:1014400052070121904205D0074A904202D0074A34
:10145000904204D182685207520F062A02D00268D5
:101460000A43026000207047000801400014014058
:1014700001680A6A054B1A4203D10A6852085200F1
:101480000A600121203041760020704711110000D0
:10149000F8B5054604462035287E0026012817D0D9
:1014A0000120287602206876226890687727FF233B
:1014B000B8431B02984390600868502838D00EDC6F
:1014C00020284FD006DC00284CD010281ED149E03F
:1014D0000220F8BD302845D0402817D13AE06028D6
:1014E0002ED0702819D001221203801A0FD09042FA
:1014F0000CD1CB684A688968206800F00BFA206834
:101500008168012292031143816000E001260120DD
:101510006876002028763046F8BDCB684A6889682E
:10152000206800F0F7F92168886838438860EEE7A2
:10153000CA684968206800F000FA5021206806E077
:10154000CA684968206800F009FA6021206800F044
:10155000ECF9DCE7CA684968206800F0EEF9402140
:101560002068F4E7226801461046F0E7704770B53E
:101570000446006801690025C9438907002915DB75
:10158000C168C943890711D4E91E01610120207691
:10159000206880698007204602D0FFF7E7FF04E05B
:1015A00000F078F8204600F076F82576206801698A
:1015B000C943490717D4C168C943490713D4042153
:1015C000C943016102202076206880698005800F70
:1015D000204602D0FFF7CAFF04E000F05BF8204687
:1015E00000F059F8257620680169C943090716D427
:1015F000C168C943090712D40821C9430161042005
:1016000020762068C0698007204602D0FFF7AEFF31
:1016100004E000F03FF8204600F03DF82576206811
:101620000169C943C90617D4C168C943C90613D49F
:101630001021C9430161082020762068C069800517
:10164000800F204602D0FFF791FF04E000F022F85F
:10165000204600F020F8257620680169C943C907B3
:1016600008D1C168C943C90704D1891E0161204658
:1016700000F012F820680169C943490609D4C1681D
:10168000C943490605D44021C9430161204600F001
:1016900004F870BD704770477047704710B504007C
:1016A00003D0A06F002802D007E0012010BD002168
:1016B00074200155204600F027F82420A0672068F8
:1016C0000168490849000160204600F0F1F901284D
:1016D000ECD0606A002802D0204600F052F9206861
:1016E00041680922D20291434160206881682A2220
:1016F0009143816020680168012211430160204606
:1017000000F0A4F910BD000010B586B00446142105
:101710006846FEF73CFD1149206888421BD11048FD
:10172000816B0122520411438163C16A012211437A
:10173000C162C06A6946104005900C2000900220EA
:1017400001900020029003200390042004900520C3
:101750000007FFF7CFF806B010BD000000440040BE
:1017600000100240FEE7000010B586B0002400948F
:101770000121164801940294039404948907059466
:1017800001601F2184604160046111494461C160AE
:10179000FFF716FE002801D072B6FEE70120000315
:1017A000009069460948FFF773FE002801D072B621
:1017B000FEE7049404A905480594FFF7D5FD002829
:1017C00001D072B6FEE706B010BD00001C0000207C
:1017D000FFFF000010B50C480A490160E1214902F1
:1017E000416000218160C16001618161C1610C22A1
:1017F000016242614162FFF751FF002801D072B6D9
:10180000FEE710BD004400405C000020FEE770478A
:10181000704710B5FFF74AF910BD000030B599B018
:1018200034216846FEF7B3FC14210DA8FEF7AFFC87
:10183000182112A8FEF7ABFC1A4801680322D20255
:101840009143C214891801600225012003901020E1
:101850000995049080030B900001009500240C90E2
:101860000A946846FFF74EFB002801D072B6FEE7E7
:101870000F200D9003200E900F94109401211194CD
:101880000DA8FFF715FA002801D072B6FEE712A8DE
:1018900012951494FFF764F9002801D072B6FEE7A0
:1018A00019B030BD007000407047000010B502480C
:1018B000FFF75DFE10BD00001C00002070B502683F
:1018C00001239B07114C124D984203D0A04201D036
:1018D000A84203D17026B2434E683243984203D0E7
:1018E000A04201D0A84204D103231B029A43CB6833
:1018F0001A4380239A430B691A4302608A68C262C2
:10190000096881620121416170BD00000008014049
:101910000014014030B58468FF252D021B021343DB
:10192000AC430B432343836030BD826870239A43EA
:101930000A4307210A438260704730B5036A046A8C
:101940006408640004628469F025AC4312012243F8
:101950000A24A3430B438261036230BD30B5036A9E
:101960001024A34303628469036A0F252D03120325
:10197000AC432243A024A3430901194382610162BD
:1019800030BD10B5818CC90707D001684A680123B2
:101990005B049A43836A1A434A60818C890707D59E
:1019A00001684A6801231B049A43C36A1A434A60C8
:1019B000818C490707D501684A6801239B049A4333
:1019C000036B1A434A60818C090707D501684A688E
:1019D0000123DB039A43436B1A434A60818CC90697
:1019E00007D50268916801231B039943836B194350
:1019F0009160818C890607D501688A6801235B03A1
:101A00009A43C36B1A438A60818C490612D50368D6
:101A10005A6801210905046C8A4322435A60026C0A
:101A20008A4207D10268516803235B059943436CDE
:101A300019435160818C090607D501684A68012362
:101A4000DB04806C9A4302434A6010BDF8B504463B
:101A5000002680300660FFF723F8054620680068FE
:101A6000124F000709D501212B46002249052046C7
:101A7000009700F00BF900280DD12068006840079E
:101A80000BD501212B46002289052046009700F046
:101A9000FDF8002801D00320F8BD2020A067E067F2
:101AA0002666603426750020F8BD0000FFFFFF01A8
:101AB000F8B50446016880682369E66918436369DC
:101AC0000025334318436A4A0B686A4E3340034388
:101AD0000B602068416803231B039943E3681943A3
:101AE00041602168A069914201D0236A18438B6844
:101AF0000B263602B34303438B605F4923685F487C
:101B00008B420AD1C0680C21084027D0042829D074
:101B1000082825D00C2811D10EE093420ED1C168BF
:101B200003208002014019D001208002091A19D037
:101B3000091A15D0814201D1082700E010274F492A
:101B40004F4840398600934232D1002F0CD0022FEB
:101B50000DD0042F10D0082F7FD126E00027EEE70C
:101B60000227ECE70427EAE7FFF770F906E00968C7
:101B7000C90605D4304603E0FFF788F9002872D083
:101B8000626851005118814267D81103814264D3C1
:101B9000010E06025008002330185941FEF7C0FA22
:101BA00003210902411A374A55E00120C003E7E743
:101BB0000122E369D20393422BD13B0000F0FFF8EE
:101BC0000906090C4D114D4D4D274D00FFF73EF90B
:101BD00009E0FFF74BF906E00968C90605D430466D
:101BE00003E0FFF753F900283DD0616840004A0840
:101BF0008018FEF77FFA80B20146234A10399142DD
:101C00002BD8511C01400007400F084329E0104623
:101C1000EBE73B0000F0D3F80906090C2112212163
:101C200021232100FFF712F90AE0FFF71FF907E06F
:101C30000968C90606D4304604E00EE0FFF726F92D
:101C4000002810D061684A081018FEF753FA80B2D5
:101C500001460D4A1039914203D9012503E010468F
:101C6000F0E72168C86000206066A0662846F8BDDD
:101C700000480040F369FFEF00440040401002407C
:101C800000093D00FFFC0F00EFFF0000FFB581B031
:101C900005461746044660350A9E55E0701C53D031
:101CA000FEF7FEFE0499401AB04230D8002E2ED026
:101CB00020680168490747D5C069C043000543D47F
:101CC00001202168C0020862EFF31080012181F336
:101CD000108821680B68FF22A13293430B6080F3C8
:101CE0001088EFF31080012181F3108821688A6841
:101CF000520852008A6080F310882020A067E067B5
:101D00008034206000202875032005B0F0BDEFF37B
:101D10001080012181F3108821680B68FF22A13215
:101D200093430B6080F31088EFF31080012181F35F
:101D3000108821688A68520852008A6080F31088EF
:101D40002020A067E067DDE72068C169029888432A
:101D500004D00020B842A1D00020D6E70120F9E746
:101D60002021020C01D010211046020A01D0104699
:101D70000839020901D01046091F820801D0104617
:101D8000891E420801D0881E7047081A7047F8B5AE
:101D9000040C8BB2264682B25E430D0C1046370C03
:101DA0005843360480190021794116466E43370C9A
:101DB00036048019794126466E438919F8BD30B43E
:101DC0007446641E2578641CAB4200D21D46635DD8
:101DD0005B00E31830BC18474900CA0202431000F8
:101DE00000D004204A0D01D001221043044A490DBD
:101DF000914201D102210843012800D105207047FA
:101E0000FF0700008307FF22DB0E9A408907090EB7
:101E10009940002808DB830809489B001B181868B4
:101E200090430843186070470007000F0838830884
:101E300004489B001B18D86990430843D861704739
:101E400000E400E000ED00E0F8B504464F1EC800D5
:101E50000838211815461E46086849683A46062380
:101E60009A4310D02A463346FEF7F6F93A46D20096
:101E7000083AA3181A687F1E5B68FEF75DFB06220E
:101E80003B469343EED1022F23D0042F11D0062FCF
:101E90002FD12A463346FEF7DFF9E36AA26AFEF73E
:101EA0004BFB2A463346FEF7D7F9636A226AFEF7F0
:101EB00043FB2A463346FEF7CFF9E369A269FEF7F2
:101EC0003BFB2A463346FEF7C7F963692269FEF7F2
:101ED00033FB2A463346FEF7BFF9E368A268FEF7F4
:101EE0002BFB2A463346FEF7B7F963682268FEF7F4
:101EF00023FBF8BD002210B5134610460149FEF73A
:101F0000CFFB10BD0000F03F10B5FEF715FB10BD74
:101F1000002210B5134610461146FEF7C1FB10BD56
:101F200010B50721024A00200907FEF731FC10BD59
:101F300001030000034A10B500201107FEF728FC3A
:101F400010BD000001FDFFFF02E008C8121F08C11C
:101F5000002AFAD170477047002001E001C1121F2A
:101F6000002AFBD17047000001490860704700005B
:101F70001800002006C00380704700680068406AAF
:101F800080B2C82801D962B600207047F0B5044677
:101F9000002093B0064607460D900A900121204686
:101FA00000F0FEFD60684169227A01252B469340CE
:101FB000994341611220FEF78BFC60684169227AE7
:101FC00095402943416172B62068FFF72FFA00213E
:101FD000204600F0E5FD206800250068456204E029
:101FE0002046FFF7CAFF00287ED021896068FEF7EF
:101FF00051FD0128F4D020680068456204E02046C5
:10200000FFF7BBFF00286FD021896068FEF742FD13
:102010000028F4D020680068416A456204E0204648
:10202000FFF7ABFF00285FD021896068FEF732FD23
:102030000128F4D020680068406A00200E902068D3
:102040000068456204E02046FFF797FF00286DD046
:1020500021896068FEF71EFD0028F4D02068006822
:10206000456204E02046FFF788FF00285ED0218902
:102070006068FEF70FFD0128F4D020680068406A10
:1020800080B201461539092901D2002003E03D380C
:10209000132801D201200D900E986A460D99115413
:1020A0000E98401C0E902828C9DB2068FFF7E0F945
:1020B00062B600216846425C491C92195206160E0F
:1020C0000829F8DB1021425C491CD2195206170E70
:1020D0001829F8DB182528462038FEF72DF9024686
:1020E0000B460020012100E020E0890700F05AF8AB
:1020F0000E900D916846405DFEF732F90D9B0E9AE9
:10210000FEF7AAF8FEF73AF90A99FEF74BF86D1CAC
:102110000A901E2DDFDB750878080A9EFEF704F989
:102120003146FEF73FF8E0602574012013B0F0BDA2
:102130008CB0FEF7C3FCFFF771FB142105A8FEF776
:1021400026F81548C26A01210A43C262C06A059195
:1021500008400A900020052406902407079005A94E
:102160002046FEF7C7FBFFF7FFFAFFF733FB01231B
:1021700022460A496846FFF7FDFE094C7D25ED0021
:102180006846FFF703FF039860606846007C207094
:102190002846FEF79DFBF3E7001002401C000020DC
:1021A00000000020F0B51FB496B084460C460246ED
:1021B000199D189803904900680063004908400879
:1021C0000193002A01D0012600E000269E19FE4B53
:1021D000F6185B109E422BD36E00039F0296002FD1
:1021E00000D00127F719F84EF84BBE199E421FD3B5
:1021F000039E0346F64F334309D03B469C4201D130
:10220000002A04D0019B002A05D0012604E000200A
:1022100039461BB0F0BD00269E19EE4B9E4207D8F2
:10222000039F029E002F00D00127F6199E4207D976
:102230002B4660462146189AFFF766FE1BB0F0BD9C
:102240000023002C29DAE44EB04226DAE34EB042F5
:1022500001DB022321E0DE4EB0421EDBE04E070D23
:10226000BE19142E09DD3427BF1B039EFE400196C4
:10227000BE40039FBE420BD00FE0039F002F0CD146
:102280001427BF1B0646FE400196BE40864204D17D
:10229000019BDE07F60F02239B1B0E46164318D147
:1022A000002D16DA002C03D0022B01D0012B06D012
:1022B0000220FFF759FEFFF71DFE1BB0F0BD022004
:1022C000FFF752FEFFF716FE0122D20751401BB066
:1022D000F0BD039E002E61D1BF4EB04220D1C14857
:1022E000844201D1002A08D0B948814209DB002D7F
:1022F00010DB189829461BB0F0BD0020B4491BB074
:10230000F0BD002D06DA01222946D2071898514067
:102310001BB0F0BDB4497944086849681BB0F0BDF2
:10232000AB4FB84225D1002D1FDA002904D0B142AD
:1023300012D1002A09D018E0002A72D1A649E20F72
:102340000020D20711431BB0F0BD0020E20F014670
:10235000D20711431BB0F0BDB14206DA234600207C
:102360003946FEF79DF91BB0F0BD104621461BB063
:10237000F0BDB14212DA0126B607B54203D12346B9
:1023800010461946FEE3994EB54207D1261E05DBDD
:102390001046314600F020FC1BB0F0BD67007F08FE
:1023A0001646002A40D100290AD08B4A914229D1F1
:1023B000002C0EDD002D1CDB002011461BB0F0BDF3
:1023C000022B16D0002C14D0012B12D1002C14DBC0
:1023D0000FE0002C28DA002D09DB012B03D00020B0
:1023E0007D491BB0F0BD002081491BB0F0BD012B21
:1023F00003D0002001461BB0F0BD00200121C90719
:102400001BB0F0BD724A91420ED1002C01DA002BB4
:1024100017D0022B06D00020C043FDF78DFF1BB064
:10242000F0BD90E20120F8E7E217521C94461A43EF
:1024300007D000220892664C62465B1E1A4307D002
:1024400009E00120FFF790FDFFF762FD1BB0F0BD32
:102450000022644C0892674A90427DDD664B674AD1
:1024600098421FDD914202DC002D05DB4DE058480B
:10247000814217DB002D48DD0220FFF775FDFFF7D5
:102480004FFD05460E460022534B21460898FDF7A6
:10249000E3FE084671004908C00FC0070143284603
:1024A0001BB0F0BD914215DA002D2EDA0220FFF7A5
:1024B0005BFDFFF735FD05460E460022464B2146E3
:1024C0000898FDF7C9FE72005208C80FC007024302
:1024D000114617E03E4B994223DD002D15DD022009
:1024E000FFF742FDFFF71CFD05460E4600223A4B62
:1024F00021460898FDF7B0FE084671004908C00F54
:10250000C007014328461BB0F0BD0220FFF72CFD99
:10251000FFF710FD49004908E20FD20711431BB035
:10252000F0BD002230463946FEF7ABF801220546E1
:102530000E46D243FEF72CF9314A324BFEF7A7F88C
:102540002A463346FDF788FE0022284BFEF79FF807
:1025500007462A46334600E064E0039110461946D8
:10256000FDF77AFE3A46039BFDF776FE0746032207
:1025700009915207244B28463146FDF76DFE07911D
:102580000C90224A204B38460999FDF765FE074614
:1025900001911F4A1F4B28463146FDF75DFE3A4622
:1025A000019BFEF76EF807460B4602460991079914
:1025B0000C98FDF7C1FF00250E462846079B0C9A94
:1025C000FEF75FF83A4627E0FFFF1F00FFFF0F000E
:1025D0000000F03F0000E0FF0000F07F00004043FB
:1025E00001FCFFFF0000F0BFB60900000000E03F63
:1025F0000000F0FF0000E0410000F043FFFFEF3F6C
:10260000555555555555D53F4715F73FFE822B6516
:1026100044DF5DF80BAE543E099BFEF738F80246E6
:102620000B4652E1012500202D05A94207DA35228B
:1026300030463946FEF7ACF806463420C0430A154A
:102640001218FE48101803900803FD49000B0143BF
:102650000F46FC49884201DC002003E0FA49884229
:1026600002DA0120119005E0002011900398401C2F
:102670007F1B039011980597C200F4480F9278448D
:10268000801843680268394630460D930292FDF780
:10269000F8FF07910C9030460D9B029A0599FDF7C3
:1026A0004BFF02460B460020E549FDF7F9FF099173
:1026B0000490079B0C9AFDF7CFFD1290002010901C
:1026C000E3480D46784400680E90012178104907D0
:1026D000084311990D9B890440180121C90447182A
:1026E0003946029A0E98FDF7CCFF3246059BFDF75E
:1026F000CEFF02460B4629461098FDF7ADFD064673
:1027000002913B4629460E9A1098FDF7A5FD079BBE
:102710000C9AFDF7BCFF3246029BFDF7B2FF099B06
:10272000049AFDF799FD0591129A0A902B461046DE
:102730001946FDF791FD06460246C6480F460B4670
:1027400006217844FFF780FB32463B460091049017
:1027500010461946FDF780FD009B049AFDF77CFDAD
:1027600006460F462B461946129A1098FDF7E4FECE
:10277000059B0A9AFDF770FD32463B46FDF7DCFEED
:10278000109A079104902B4610461946FDF764FDF8
:10279000B14E0022334609910290FDF7CDFE079B12
:1027A000049AFDF7C9FE0020074602463346009111
:1027B000FDF767FF099B029AFDF763FF079B049AE9
:1027C000FDF765FF06460D913A462946009B109895
:1027D000FDF742FD07910C902B463046129A0D9959
:1027E000FDF73AFD05460E463A46009B05990A98C4
:1027F000FDF732FD33462A46FDF79EFE02460B46A4
:102800000746099107990C98FDF796FE00250E469C
:102810002846079B0C9AFDF734FF3A46099BFDF7C3
:1028200036FF07460722099152078C4B314628464E
:10283000FDF712FD07910090894A884B38460999A7
:10284000FDF70AFD07460191864A874B3146284627
:10285000FDF702FD3A46019BFDF76EFE834B7B447C
:102860000F9A9B181A685B68FDF766FE0290099143
:102870000398FDF761FD05910490099B029A079961
:102880000098FDF759FE7A4B7B440F9A9B181A6803
:102890005B6817460393FDF74FFE059B049AFDF70F
:1028A0004BFE0E462846059B049AFDF7EAFE3A4683
:1028B000039BFDF7E6FE079B009AFDF7E2FE099BEE
:1028C000029AFDF7E4FE02460B46199900200C908F
:1028D0000F461898FDF7C0FC029104903B460C9AF5
:1028E00019991898FDF7CDFE2A463346FDF7B4FC3A
:1028F000029B049AFDF720FE09910E902A4633466A
:1029000039460C98FDF7A8FC06460F46099B0E9A1F
:10291000FDF712FE574A0D46914220DB5242AA189B
:10292000024310D132463B46FDF7ABFE04900391C3
:10293000514A524B09990E98FDF7FEFD039B049AEC
:10294000FDF73CFF1ED20220FFF70EFBFFF7E8FA6F
:1029500049004908E20FD20711431BB0F0BD6A00DD
:10296000474B52089A420DD3464AAA18024300D058
:10297000CBE532463B46FDF784FE099B0E9AFDF7F8
:102980001DFFF5D96800002340082C490393020D70
:102990003D4B5218984223DD01200005521CD040C7
:1029A00042195000400D40183849794409681346CF
:1029B0008C463749C1408B4312030121120B090594
:1029C00051181422101AC1400391002D01DA484217
:1029D0000390624630463946FDF753FE06460F46E1
:1029E00032463B4609990E98FDF7A6FD00252A467A
:1029F000284B28460591FDF72FFC07910C90264A9D
:102A0000264B28460599FDF727FC00910290324697
:102A10003B4628460599FDF734FE099B0E9AFDF7C3
:102A200036FE1F4A1F4BFDF717FC009B029AFDF76D
:102A300083FD07460B460246099135E001FCFFFF86
:102A40000000F03F8E9803007AB60B00C605000028
:102A500008060000320500000000084009C7EE3FEC
:102A6000FD033ADCF5015B14E02F3EBE06040000D6
:102A7000CC03000000009040FE822B654715973C78
:102A800000CC904000346F3F0000E03F2203000084
:102A9000FFFF0F00432EE63F396CA80C615C20BE9F
:102AA000EF39FAFE422EE63F07990C98FDF744FDF8
:102AB00005460E46079B0C9AFDF7E3FD3A46099B37
:102AC000FDF7E5FD09912A4633460E90104619465A
:102AD000FDF7C2FB074602462F480B46059105212C
:102AE0007844FFF7B1F93A46059BFDF7B5FB2A4656
:102AF0003346FDF7CCFD0746019128463146099B38
:102B00000E9AFDF7A9FB099B0E9AFDF715FD01230F
:102B100004910C9000229B0738460199FDF7B1FD06
:102B200005910E903A4628463146019BFDF794FBED
:102B3000059B0E9AFDF7B4FD049B0C9AFDF7A1FDD1
:102B40002A463346FDF79DFD0022144BFDF79FFDFD
:102B5000064603980D46000541190915002912DCA7
:102B600030462946039AFDF713FEFFF735F904288E
:102B700001D1FFF7DFF930462946039AFDF708FE39
:102B8000064601E004E029180B4632462146089823
:102B9000FDF762FB1BB0F0BDC40100000000F03F78
:102BA00030B585B00D46044614216846FDF7EFFAAE
:102BB0000020012103222389002D009303D00392DA
:102BC0000191029001E001AD07C569466068FDF71B
:102BD00091FE05B030BD0000F8B506460C46FDF785
:102BE00026FE051E0F4600D00120014349000B4878
:102BF0004908411AC90F0DD0002E01D0012100E073
:102C000000210C4361004908401AC00F02D1012085
:102C1000FFF7AAF928463946F8BD00000000F07F0A
:102C2000000000000000000001020304060708097C
:102C3000030406080C1018203000000000010203F5
:102C40000400000000000000000000000000F03F51
:102C5000000000000000F83F00000000000000003D
:102C60000000004003B8E23F000000000000000048
:102C700006D0CF43EBFD4C3E033333333333E33FD6
:102C8000FFAB6FDBB66DDB3F4D268F515555D53F02
:102C900001411DA96074D13F65DBC9934A86CD3FD0
:102CA000EF4E454A287ECA3F3E5555555555C53FBE
:102CB00093BDBE166CC166BF2CDE25AF6A56113FB0
:102CC000F16BD2C541BDBBBED0A4BE726937663EB2
:102CD0000000000000000000F82C000800000020A8
:102CE0001C000000481F0008142D00081C000020D4
:102CF000C4040000581F000800000000000000008D
:102D0000010000000400000000000000000020009E
:042D100000000000BF
:04000005080000C12E
:00000001FF
